:100000000C94F4000C9415010C9415010C9415013A
:100010000C9415010C9415010C9415010C94150108
:100020000C9415010C9415010C9415010C941501F8
:100030000C9415010C9415010C9415010C941501E8
:100040000C9415010C9415010C9415010C941501D8
:100050000C9415010C9415010C9415010C941501C8
:100060000C9415010C9415010C9415010C941501B8
:100070000C9415010C9415010C9415010C941501A8
:100080000C9415010C9415010C9415010C94150198
:100090000C9415010C9415010C9415010C94150188
:1000A0000C9415010C9415010C9415010C94150178
:1000B0000C9415010C9415010C9415010C947E2CD4
:1000C0000C9415010C9415010C9415010C94150158
:1000D0000C9415010C94C8460C9415010C94150150
:1000E0000C9415010C9415010C9415010C94150138
:1000F0000C9415010C9415010C9415010C94150128
:100100000C9415010C9415010C9415010C94150117
:100110000C9415010C9415010C9415010C94150107
:100120000C9415010C9415010C9415010C941501F7
:100130000C9415010C94BD350C9415010C9415010B
:100140000C9415010C9415010C9415010C94233298
:100150000C9415010C9415010C9415010C941501C7
:100160000C943C040C9415010C9415010C9415018D
:100170000C9415010C9415010C9415010C941501A7
:100180000C9415010C9415010C9415010C94150197
:100190000C9415010C9415010C9415010C94150187
:1001A0000C9415010C9415010C9415010C94150177
:1001B0000C94A83A0C9415010C9415010C9415019B
:1001C0000C9415010C9415010C9415010C94150157
:1001D0000C9415010C9415010C9415010C94150147
:1001E0000C9415010C94150111241FBECFEFDFE50F
:1001F000DEBFCDBF00E00CBF1CE2A0E0B0E2EEE04D
:10020000F6EA00E00BBF02C007900D92A23EB107D4
:10021000D9F711E5A2EEBCE201C01D92AC3CB107DA
:10022000E1F70E943C4C0C9405530C9400000F9392
:10023000DF93CF930F92CDB7DEB72FB72983F89412
:100240001BBEFC0108ED04BF608389818FBF0F9046
:10025000CF91DF910F91089520912D01922F80E091
:100260008093182D9093192D8091182D9091192D10
:1002700020912C01820F911D8093182D9093192DA0
:100280008091182D9091192D885597448093182DA1
:100290009093192D2091182D3091192D8091162DA4
:1002A0009091172D40E02817390709F041E0842F7D
:1002B00008950E942C01882331F120912D01922F65
:1002C00080E08093182D9093192D8091182D909196
:1002D000192D20912C01820F911D8093182D909340
:1002E000192D8091182D9091192D88559744809340
:1002F000182D9093192D8091182D9091192D809380
:10030000162D9093172D0895AB01BC01E0E0F1E0AC
:1003100080910001806880930001809122018560B6
:1003200082A38BE483A384E690E084A395A316A222
:1003300080EA80A728E021A712A688E597E484A791
:1003400095A716A680912001846A80A3E0E4F6E0D8
:10035000218384E0828391E0928382E0818385839C
:10036000E0EAF8E083E08583403825E2520720E0A8
:10037000620720E0720711F48FE509C0403022ECDB
:10038000520721E0620720E0720719F487E08683B4
:1003900018C0403024E8520723E0620720E07207CB
:1003A000B1F3403088E0580787E0680780E07807BD
:1003B00011F4968306C0405050416E40704011F4D5
:1003C00016821782E0EAF8E08091A40880618483B5
:1003D0008091A408886084830E945901089588232D
:1003E00021F00E942C018823E1F3E091162DF09179
:1003F000172DE85AF84BE0818091162D9091172D1A
:1004000001968093162D9093172D8091162D909123
:10041000172D8436910520F01092162D1092172D6D
:100420008E2F0895982F8091A10885FFFCCF809191
:10043000480680FDFCCF9093A008089588E0809343
:10044000400880EC80938001E0E0F8E08FEF9FEFC0
:1004500086A397A38081807F8460808308950F9313
:10046000DF93CF930F92CDB7DEB7AB01BC01F89409
:1004700082E08093F0008FB78983F8941BBE21E05F
:1004800080EF90E0FC0108ED04BF208389818FBFDD
:100490008091F00084608093F0008091F00088608B
:1004A0008093F000809120048E7F80932004E0E20E
:1004B000F4E08091210480FDFACF8EEF9FEFAFEF43
:1004C000BFEF80879187A287B3871486158616862B
:1004D00017864483558366837783809120048160E7
:1004E000809320048091210480FDFCCF8091220420
:1004F000837F8460E0E2F4E0828378940F90CF9170
:10050000DF910F9108958091F10087FD12C08091D5
:10051000F10080FD0EC08091F10081FD0AC082E0F3
:100520008093F0008091F10086958695809581708A
:10053000089580E00895809121048061E0E2F4E074
:1005400081838091210484FDFCCF2091240430918B
:1005500025044091260450912704B901CA01089549
:10056000F8942091600830916108609120087091A2
:10057000210880916008909161082817390741F09F
:1005800020916008309161086091200870912108E5
:10059000789440E050E0A90133272227CB01A0E066
:1005A000B0E0280F391F4A1F5B1FB901CA01089527
:1005B0008F929F92AF92BF92CF92DF92EF92FF9273
:1005C0000F931F93CF93DF937B018C01EA012CE300
:1005D00030E040E050E00E94DA4E6983C801B70184
:1005E0002CE330E040E050E00E94DA4E122F032F5F
:1005F000F42EE52E622F732F842F952F2CE330E0FD
:1006000040E050E00E94DA4E6A83612F702F8F2DF8
:100610009E2D2CE330E040E050E00E94DA4E122F95
:10062000032FF42EE52E622F732F842F952F28E1B0
:1006300030E040E050E00E94DA4E6B83612F702F73
:100640008F2D9E2D28E130E040E050E00E94DA4EF0
:1006500079018A01C801B7016C5F7F4F8F4F9F4FAF
:1006600027E030E040E050E00E94DA4E6F5F6C839C
:1006700020E0AA24BB24650101C02F5F822E9924AB
:10068000F401EE54F84FCF0183709070892B99F4E8
:10069000CF0164E670E00E94C74E892B39F4CF0188
:1006A00060E971E00E94C74E892B29F48EE691E043
:1006B000A0E0B0E004C08DE691E0A0E0B0E0A80EBC
:1006C000B91ECA1EDB1EC501A0E0B0E0E816F9069F
:1006D0000A071B0790F62F83F401EE54F84F93E0BE
:1006E000892E912C8E229F228114910499F4CF019E
:1006F00064E670E00E94C74E892B39F4CF0160E9AF
:1007000071E00E94C74E892B29F48EE691E0A0E0AB
:10071000B0E004C08DE691E0A0E0B0E0A81AB90A0C
:10072000CA0ADB0A980187010A191B092C093D092D
:10073000CF0164E670E00E94C74E7C01CF0160E902
:1007400071E00E94C74EAC01E5EDFCE260E0613073
:1007500051F48114910449F4E114F10441F4411578
:10076000510529F002C0808103C08CE101C08DE1F8
:1007700090E0A0E0B0E0081719072A073B0740F017
:10078000081B190B2A0B3B0B6F5F31966C30F9F687
:100790006F5F6E83802F8F5F8D83CE01DF91CF914E
:1007A0001F910F91FF90EF90DF90CF90BF90AF908F
:1007B0009F908F900895E0E6F6E088E0818384E0E2
:1007C0008283E0EAF9E083E085838FE58683178200
:1007D0008481806184838481886084838381806351
:1007E000838308952091202D3091212D80911E2DFD
:1007F00090911F2D40E02817390709F041E0842F20
:100800000895882359F02091202D3091212D809139
:100810001E2D90911F2D28173907A9F3E0911E2D49
:10082000F0911F2DE558F34BE08180911E2D9091A2
:100830001F2D019680931E2D90931F2D80911E2DAC
:1008400090911F2D8050944020F010921E2D1092F8
:100850001F2D8E2F08958091202D9091212D809312
:100860001E2D90931F2D0895982F8091A10985FF2B
:10087000FCCF9093A00908951F920F920FB60F928C
:100880000BB60F9211242F938F939F93EF93FF93A7
:10089000E091202DF091212D8091A009E558F34B96
:1008A0008083E091202DF091212DE558F34B80813C
:1008B0008A3019F481E08093222D8091202D90912F
:1008C000212D01968093202D9093212D8091202D14
:1008D0009091212D8050944020F01092202D109264
:1008E000212DFF91EF919F918F912F910F900BBE32
:1008F0000F900FBE0F901F90189582E380938D2D5F
:100900008FEFE0ECF8E083838091C20887FFFCCF93
:100910008091C308E0ECF8E02FEF23838091C208B8
:1009200087FFFCCF9091C3089F3F21F080918D2DD0
:10093000882399F7892F08951F93CF93DF93C0E4FD
:10094000D6E010E11E830E947D048F3F11F481E008
:100950000CC01D838FEFE0ECF8E083838091C20828
:1009600087FFFCCF8091C30880E0DF91CF911F917A
:100970000895FC0184E180938C2DA0ECB8E09FEFFA
:1009800013969C9313978091C20887FFFCCF8091A8
:10099000C3088F3F29F480918C2D882389F749C0A3
:1009A0008E3F09F046C0A0ECB8E09FEF13969C93F1
:1009B00013978091C20887FFFCCF8091C308808382
:1009C00013969C9313978091C20887FFFCCF809168
:1009D000C308818313969C9313978091C20887FF65
:1009E000FCCF8091C308828313969C9313978091C8
:1009F000C20887FFFCCF8091C30883836450704096
:100A000011F03496D3CF8FEFE0ECF8E08383809140
:100A1000C20887FFFCCF8091C3088FEFE0ECF8E0BD
:100A200083838091C20887FFFCCF8091C30881E057
:100A3000089580E008951F93CF93DF93EC01162F64
:100A40000E947D048F3F11F090E03FC0E0ECF8E0A1
:100A500013838091C20887FFFCCF1D3F11F491E002
:100A600034C090E0E0ECF8E0888183838091C20894
:100A700087FFFCCF898183838091C20887FFFCCFE9
:100A8000915011F02296F0CF8FEFE0ECF8E08383E5
:100A90008091C20887FFFCCF8FEFE0ECF8E0838302
:100AA0008091C20887FFFCCF8FEFE0ECF8E08383F2
:100AB0008091C20887FFFCCF8091C30890E08F71BE
:100AC000853009F091E081E09827892FDF91CF915F
:100AD0001F910895DF92EF92FF920F931F93D82EEC
:100AE0007A018B0187FF0CC087E740E050E060E0AF
:100AF00070E00E946A05823008F072C08FE7D82249
:100B000080E1E0E4F6E085838FEFE0ECF8E08383BA
:100B10008091C20887FFFCCF8091C3080E949C048B
:100B2000882311F48FEF5CC0E0ECF8E0D382809171
:100B3000C20887FFFCCF812F9927AA27BB27E0ECAB
:100B4000F8E083838091C20887FFFCCFC801AA2701
:100B5000BB27E0ECF8E083838091C20887FFFCCFDD
:100B6000BB27A12F902F8F2DE0ECF8E0838380919D
:100B7000C20887FFFCCFE0ECF8E0E3828091C20876
:100B800087FFFCCF80E4D81611F485E906C088E41D
:100B9000D81611F487E801C081E0E0ECF8E0838327
:100BA0008091C20887FFFCCF8CE4D81651F48FEFF8
:100BB000E0ECF8E083838091C20887FFFCCF80914E
:100BC000C3089AE0E0ECF8E02FEF23838091C2089D
:100BD00087FFFCCF8091C30887FF02C09150A9F71F
:100BE0001F910F91FF90EF90DF900895EF92FF9289
:100BF0000F931F93DF93CF9300D00F92CDB7DEB743
:100C00008091D42C81FDCCC0E0E4F6E080EB8183C0
:100C100088E3868B14828CE291E020E731E0F901D1
:100C20003197F1F70197D9F783E58093C0089AE0EF
:100C3000E0ECF8E02FEF23838091C20887FFFCCF20
:100C40008091C3089150B9F780E440E050E060E043
:100C500070E00E946A05813009F087C084E68093C5
:100C60008C2D88E44AEA51E060E070E00E946A0559
:100C7000813009F053C07E010894E11CF11C87010A
:100C8000E0ECF8E09FEF9E012B5F3F4F9383809154
:100C9000C20887FFFCCF8091C308D8018D938D01D6
:100CA000A217B30799F78B81813009F05EC08C8160
:100CB0008A3A09F05AC080918C2D882349F089EE38
:100CC00040E050E060E070E40E946A05882399F7F4
:100CD00080918C2D882309F448C08AE740E050E0D9
:100CE00060E070E00E946A05882309F03EC0E0ECF5
:100CF000F8E09FEF93838091C20887FFFCCF80913B
:100D0000C308D7018D937D01A017B10799F7898199
:100D100086FD02C014E02AC01CE028C089EE40E035
:100D200050E060E070E00E946A05823018F011E047
:100D300001E402C012E009EE80918C2D882349F075
:100D4000802F40E050E060E070E00E946A05882358
:100D500099F780918C2D882341F080E540E052E0A6
:100D600060E070E00E946A05811110E010938E2D02
:100D700080E1E0E4F6E085838FEFE0ECF8E0838348
:100D80008091C20887FFFCCF8091C308112341F0F6
:100D90008091D42C8E7F8093D42C80ED8093C008DA
:100DA0008091D42C2496CDBFDEBFCF91DF911F91CF
:100DB0000F91FF90EF900895882311F081E008953E
:100DC0008091D42C08950F93CF93DF93EB01882368
:100DD00009F053C0002309F450C08091D42C80FF47
:100DE00002C003E04BC080918E2D83FD07C069E0F7
:100DF000220F331F441F551F6A95D1F7013089F424
:100E000081E5BA01A9010E946A05882321F5CE0176
:100E100060E072E00E94B90400E08823E1F401E0A0
:100E20001AC082E5BA01A9010E946A05882399F4D3
:100E3000CE0160E072E00E94B904882329F00150DD
:100E400019F0C050DE4FF4CF8CE440E050E060E099
:100E500070E00E946A0580E1E0E4F6E085838FEFB0
:100E6000E0ECF8E083838091C20887FFFCCF80919B
:100E7000C308002319F001E001C004E0802FDF91D6
:100E8000CF910F910895CF92DF92EF92FF920F933F
:100E9000CF93DF93EB0169017A01882309F061C0E8
:100EA000002309F45EC08091D42C80FF02C003E0CF
:100EB00059C08091D42C82FF02C002E053C08091BF
:100EC0008E2D90E083FD07C079E0CC0CDD1CEE1C7C
:100ED000FF1C7A95D1F7013069F488E5B701A601C6
:100EE0000E946A05882359F5CE016EEF0E941B050A
:100EF00000E022C086709070892B39F0402F50E0BE
:100F000060E070E087ED0E946A0589E5B701A601FF
:100F10000E946A05882399F4CE016CEF0E941B059C
:100F2000882329F0015019F0C050DE4FF5CF80E042
:100F300090E06DEF0E941B05882309F401E080E139
:100F4000E0E4F6E085838FEFE0ECF8E083838091C6
:100F5000C20887FFFCCF8091C308002319F001E08D
:100F600001C004E0802FDF91CF910F91FF90EF90AF
:100F7000DF90CF900895FF920F931F93DF93CF934D
:100F8000CDB7DEB76097CDBFDEBF8A01882309F0F9
:100F9000B8C1643001F5FA018081813039F08130C7
:100FA00008F4B1C1823009F0ACC111C0E0E4F6E050
:100FB00080EB818388E3868B14828CE291E020E7CA
:100FC00031E0F9013197F1F70197D9F79CC181E040
:100FD000FA01818398C18091D42C80FF02C093E0F4
:100FE00093C16A3009F42FC16B3050F4613051F174
:100FF0006130A0F0623009F486C0633069F489C0C2
:101000006C3009F427C16C3008F422C16D3009F44A
:101010002EC16E3009F44AC194E064C10E949C0460
:10102000882309F45EC180E1E0E4F6E085838FEF78
:10103000E0ECF8E083838091C20887FFFCCF8091C9
:10104000C308FFC089E440E050E060E070E00E9427
:101050006A05882309F045C1CE01019660E170E080
:101060000E94B904882309F43CC189818295869540
:10107000869583707A854985813089F4872F90E041
:101080000196342F20E0820F931FA0E0B0E02AE009
:10109000880F991FAA1FBB1F2A95D1F7CDC0429573
:1010A000469546954370288530E0220F331F220F66
:1010B000331F240F311D2F5F3F4F8F8190E08370CE
:1010C0009070982F8827990F990F280F391F40E0AB
:1010D00050E08E818F706B85661F6627661F860FB6
:1010E0008E5F7370770F870F90E0099704C0220F0F
:1010F000331F441F551F8A95D2F7F801208331838F
:10110000428353839EC080E092E0FA018083918302
:1011100098C080918E2DF82E82FF39C08DEC40E072
:1011200050E060E070E00E946A05882309F0D9C0B1
:101130008FEFE0ECF8E083838091C20887FFFCCF5B
:101140008091C308CE01019660E170E00E94B9046D
:10115000882309F4C6C090E3E0ECF8E02FEF238386
:101160008091C20887FFFCCF8091C3089150B9F7E6
:101170002B8522952F7080E190E0A0E0B0E004C0C4
:10118000880F991FAA1FBB1F2A95D2F755C089E463
:1011900040E050E060E070E00E946A05882309F0BA
:1011A000A0C0CE01019660E170E00E94B9048823DE
:1011B00009F497C04B858C85F1FE1BC0881F8827DA
:1011C000881F90E00196242F30E02F733070220F9B
:1011D000331F820F931F2E85229526952695237007
:1011E00030E02150304002C0880F991F2A95E2F765
:1011F00021C0282F30E023703070F3E0220F331F1E
:10120000FA95E1F7829586958770280F311D2F5F3B
:101210003F4F842F90E08C779070959587959595AA
:1012200087950196AC01249FC001259F900D349FA6
:10123000900D1124A0E0B0E0F80180839183A28397
:10124000B38390E04FC080918E2DFA018083F9CF57
:1012500089E401C08AE440E050E060E070E00E9470
:101260006A058823F1F5C80160E170E035C08AE7BE
:1012700040E050E060E070E00E946A05882389F554
:10128000F801A0ECB8E09FEF98012D5F3F4F139657
:101290009C9313978091C20887FFFCCF8091C3086D
:1012A0008083E217F30769F23196F1CF8DEC40E0CD
:1012B00050E060E070E00E946A05882391F48FEFAF
:1012C000E0ECF8E083838091C20887FFFCCF809137
:1012D000C308C80160E470E00E94B90490E088236C
:1012E00009F491E080E1E0E4F6E085838FEFE0EC43
:1012F000F8E083838091C20887FFFCCF8091C30808
:1013000003C094E001C090E0892F6096CDBFDEBF9E
:10131000CF91DF911F910F91FF90089580918C2DB7
:10132000882319F0815080938C2D80918D2D8823F6
:1013300019F0815080938D2D8091D42C897F8093DA
:10134000D42C089560E070E080E090E008956F9202
:101350007F928F929F92AF92BF92CF92DF92EF9245
:10136000FF920F931F93CF93DF93EC014A015B0130
:10137000CAA4DBA4ECA4FDA4C416D506E606F706B1
:1013800009F44EC08C818823A1F13EE2632E712CBA
:101390006C0E7D1E8981B301A701960101E00E94B8
:1013A00043078823D9F51C828E899F89A88DB98D22
:1013B0002E8D3F8D48A159A1820F931FA41FB51FE9
:1013C000C816D906EA06FB06A0F41B8110C08E8958
:1013D0009F89A88DB98DC80ED91EEA1EFB1E898172
:1013E000B301A701960101E00E944307115012309A
:1013F00070F781149104A104B10491F0BE01625D03
:101400007F4F8981A501940101E00E94E3068823B2
:1014100029F48AA69BA6ACA6BDA603C081E001C0A4
:1014200080E0DF91CF911F910F91FF90EF90DF90BF
:10143000CF90BF90AF909F908F907F906F900895C6
:101440000F93CF93DF93EC0140E050E060E070E059
:101450000E94A709882309F07EC08881833009F0A3
:1014600072C08D81882309F46EC01AA61BA61CA623
:101470001DA6BE01625D7F4FFB0180E092E001C0CE
:10148000119201972FEF8F3F9207D1F7C45DDD4F87
:1014900085E589938AEA8883CD52D24082E58EA77A
:1014A0008FA721E628AB91E499ABCE5EDD4F82E7B2
:1014B0008993899399932883C551D2408E85CA5EBA
:1014C000DD4F8883C651D2408F85C95EDD4F88834A
:1014D000C751D2408E859F85A889B9899D0144272F
:1014E0005527C85EDD4F288321968B2F9927AA2781
:1014F000BB278883C951D2408A85C65EDD4F888369
:10150000CA51D2408B85C55EDD4F8883CB51D24016
:101510008A859B85AC85BD859D0144275527C45E82
:10152000DD4F288321968B2F9927AA27BB278883F5
:10153000CD51D2402A893B894C895D89898101E05E
:101540000E9443071D82898160E040E050E00E94D4
:10155000BB07811181E0DF91CF910F9108957F92B8
:101560008F929F92AF92BF92CF92DF92EF92FF92B3
:101570000F931F93CF93DF934C017A018B0142307D
:1015800051056105710508F4BBC0F401828D938D8E
:10159000A48DB58D481759076A077B0708F0B0C0BE
:1015A000A68CB78CC0A0D1A08081823009F44DC038
:1015B000833009F468C0813009F0A7C0EA01D695EC
:1015C000C795C40FD51FAE01452F5527469560E03E
:1015D00070E04A0D5B1D6C1D7D1DC4010E94A709B2
:1015E000882309F092C0FE01F170E80DF91D76A480
:1015F0002196AE01452F5527469560E070E04A0DD3
:101600005B1D6C1D7D1DC4010E94A709882309F084
:101610007CC0672D70E0D170C80DD91D9EA580E0FB
:10162000682B792BC70181709070892B39F044E0C9
:10163000769567954A95E1F79B0122C09B0140E0B2
:1016400050E03F704070507064C0452F562F672F98
:1016500077274A0D5B1D6C1D7D1DC4010E94A709E3
:10166000882309F052C0F701EE0FFF1FF170E80D5B
:10167000F91D97A580E026A530E0822B932B9C01D5
:1016800040E050E046C097E07695679557954795BE
:101690009A95D1F74A0D5B1D6C1D7D1DC4010E94FA
:1016A000A709882391F5F701EE0FFF1FEE0FFF1F2B
:1016B000F170E80DF91D81A990E0A0E0B0E0582F8D
:1016C00044273327222780A990E0A0E0B0E0DC0186
:1016D00099278827282B392B4A2B5B2B86A590E04E
:1016E000A0E0B0E0282B392B4A2B5B2B97A580E09C
:1016F000A0E0B0E0282B392B4A2B5B2B5F7009C090
:1017000021E030E040E050E004C02FEF3FEF4FEF2A
:101710005FEFB901CA01DF91CF911F910F91FF9047
:10172000EF90DF90CF90BF90AF909F908F907F9081
:1017300008952F923F924F925F926F927F928F9275
:101740009F92AF92BF92CF92DF92EF92FF920F9350
:101750001F93CF93DF933C016A017B01480159013C
:10176000423051056105710508F4BAC0F301828D5C
:10177000938DA48DB58D481759076A077B0708F02C
:10178000AFC0268C378C40A051A08081823009F4F4
:1017900064C0833009F47AC0813011F022E09CC02B
:1017A000EA01D695C795C40FD51FAE01452F552721
:1017B000469560E070E0420D531D641D751DC30128
:1017C0000E94A709282F882309F086C0DE01B17086
:1017D0008601017010700115110551F0F301EA0F37
:1017E000FB1F86A58F70982D9295907F982B01C036
:1017F000982DA60DB71D9E969C93219681E0F3012E
:101800008483AE01452F5527469560E070E0420D78
:10181000531D641D751DC3010E94A709282F88232D
:1018200009F05AC0D170012B49F064E0B694A79436
:10183000979487946A95D1F7482D0BC0F301EC0F6C
:10184000FD1F46A5407FBB27AB2D9A2D892D8F709C
:10185000482BC60DD71D4EA73FC077276F2D5E2D95
:101860004D2D420D531D641D751DC3010E94A70916
:10187000282F882389F5F601EE0FFF1FF170E60D82
:10188000F71D86A6892D992787A726C087E076951C
:101890006795579547958A95D1F7420D531D641D5D
:1018A000751DC3010E94A709282F8823A9F4F601FA
:1018B000EE0FFF1FEE0FFF1FF170E60DF71D86A65E
:1018C000892D992787A7C501AA27BB2780AB8B2D18
:1018D0009927AA27BB2781AB81E0F301848301C04C
:1018E00022E0822FDF91CF911F910F91FF90EF9017
:1018F000DF90CF90BF90AF909F908F907F906F9030
:101900005F904F903F902F9008959F92AF92BF921B
:10191000CF92DF92EF92FF920F931F93CF93DF93BB
:10192000EC017A018B01423051056105710508F423
:1019300058C08A8D9B8DAC8DBD8D481759076A079D
:101940007B0708F441C04DC0CE01B801A7010E9439
:10195000AF0A5B016C01611571058105910509F400
:1019600042C081E0A816B104C104D104D1F12FEF27
:10197000A2162FEFB2062FEFC2062FEFD20611F4F8
:1019800081E032C0CE01B801A70100E010E020E004
:1019900030E00E94990B882339F58E859F85A889B0
:1019A000B9898F3F2FEF92072FEFA2072FEFB207D2
:1019B00041F00196A11DB11D8E879F87A88BB98B21
:1019C0009D828601750102C0992493948A8D9B8D16
:1019D000AC8DBD8DE816F9060A071B0708F4B4CFD5
:1019E00002C082E001C080E0DF91CF911F910F9192
:1019F000FF90EF90DF90CF90BF90AF909F900895B1
:101A00002F923F924F925F926F927F928F929F920E
:101A1000AF92BF92CF92DF92EF92FF920F931F93FC
:101A2000DF93CF9300D00F92CDB7DEB71C012A0110
:101A30003B01DC015A968D919D910D90BC91A02D9A
:101A400089839A83AB83BC83411551056105710578
:101A500081F4F10182849384A484B5848114910477
:101A6000A104B10411F188169906AA06BB06E8F490
:101A700021C0C1010E94AF0A9B01AC016230710517
:101A80008105910528F421E030E040E050E093C06A
:101A900089819A81AB81BC81281739074A075B0786
:101AA00008F489C05301420105C0B1E08B2E912C8E
:101AB000A12CB12C750164010894C11CD11CE11C3E
:101AC000F11C89819A81AB81BC81C816D906EA06CE
:101AD000FB0660F092E089169104A104B10408F4B9
:101AE00061C0A2E0CA2ED12CE12CF12CC101B701BA
:101AF000A6010E94AF0A9B01AC0161157105810529
:101B00009105A9F06F3FAFEF7A07AFEF8A07AFEF0C
:101B10009A0709F450C0613071058105910509F4F7
:101B20004AC0C814D904EA04FB0431F63BC0BC2CFB
:101B3000AD2C9E2C8F2CC101A601B7010FEF1FEF1A
:101B40002FEF3FE00E94990B882389F5411451043F
:101B50006104710449F0C101B301A201860197013A
:101B60000E94990B882319F5F101B286A386948609
:101B7000858686859785A089B1898F3FFFEF9F076E
:101B8000FFEFAF07FFEFBF0751F00197A109B109C0
:101B9000F10186879787A08BB18B81E08583A701B0
:101BA000960109C020E030E040E050E004C02FEF93
:101BB0003FEF4FEF5FEFB901CA012496CDBFDEBF03
:101BC000CF91DF911F910F91FF90EF90DF90CF9019
:101BD000BF90AF909F908F907F906F905F904F904D
:101BE0003F902F900895EF92FF920F931F93CF9302
:101BF000DF93EC017A018B018EEF9FEFAFEFBFEF28
:101C0000E80EF91E0A1F1B1F8A8D9B8DAC8DBD8DA2
:101C10000297A109B109E816F9060A071B0728F07F
:101C200020E030E040E050E012C02A8130E040E0A7
:101C300050E0C801B7010E94944E9B01AC018EA1F7
:101C40009FA1A8A5B9A5280F391F4A1F5B1FB9017D
:101C5000CA01DF91CF911F910F91FF90EF900895EE
:101C6000AF92BF92CF92DF92EF92FF920F931F93AA
:101C7000CF93DF935C016B01DC0114966D937C9331
:101C8000159716964D915D916D917C911997413004
:101C900051056105710509F4D3C0ED91FC91828D68
:101CA000938DA48DB58D481759076A077B0708F0F7
:101CB000C7C0411551056105710581F580818330EB
:101CC00049F442A153A164A175A1411551056105D3
:101CD000710521F5F501128613861486158601908B
:101CE000F081E02D80859185C816D90608F0A8C03E
:101CF000C60124E0969587952A95E1F7A0E0B0E02B
:101D000022A133A144A155A1820F931FA41FB51F87
:101D1000F50186879787A08BB18B7AC08281082FC7
:101D200010E094E0000F111F9A95E1F724C0CE0156
:101D30000E94AF0AAB01BC014F3FFFEF5F07FFEF0F
:101D40006F07FFEF7F0711F481E07BC04230510540
:101D50006105710508F474C0D501ED91FC91828D87
:101D6000938DA48DB58D481759076A077B0708F036
:101D700067C0C01AD10AF501C081D181C016D10651
:101D8000B0F6D5011A964D935D936D937C931D9794
:101D90008EEFE82E8FEFF82E8FEF082F8FEF182F92
:101DA000E40EF51E061F171F8A8D9B8DAC8DBD8D11
:101DB0000297A109B109E816F9060A071B0728F0DE
:101DC00020E030E040E050E012C02A8130E040E006
:101DD00050E0C801B7010E94944E9B01AC018EA156
:101DE0009FA1A8A5B9A5280F391F4A1F5B1FC601CF
:101DF00004E0969587950A95E1F7A0E0B0E0280FFA
:101E0000391F4A1F5B1FF50126873787408B518B8F
:101E1000FFE0CF22DD2415E0CC0CDD1C1A95E1F7A4
:101E20008EE290E0C80ED91ED5018D919C9111973C
:101E30008C0D9D1D52968D939C93539780E001C00D
:101E400082E0DF91CF911F910F91FF90EF90DF9093
:101E5000CF90BF90AF9008954F925F926F927F9214
:101E60008F929F92AF92BF92CF92DF92EF92FF92AA
:101E70000F931F93CF93DF93EC01D62E6C807D8060
:101E80000894611C711C6114710409F44CC18E85A5
:101E90009F85A889B9890097A105B10509F443C1B7
:101EA0001FE0412E512C462057204114510409F0C7
:101EB00027C10196A11DB11D8E879F87A88BB98B65
:101EC0004A855B856C857D85E881F98141155105E1
:101ED0006105710539F4808591856816790608F4E5
:101EE0000FC121C1828190E001979301A4E0369552
:101EF0002795AA95E1F782239323892B09F000C146
:101F0000CF010E94AF0A7B018C016230710581050F
:101F1000910508F40AC18FEFE8168FEFF8068FEFEE
:101F200008078FEF180709F402C1E881F981828D53
:101F3000938DA48DB58DE816F9060A071B0708F4E2
:101F4000A6C0DD2009F4EFC04A855B856C857D85E0
:101F5000CF010E94000D7B018C0161157105810587
:101F6000910511F487E0E4C091E0E916F104010560
:101F7000110509F4DAC0AFEFEA16AFEFFA06AFEFDA
:101F80000A07AFEF1A0709F4D2C08881998140E0AF
:101F900050E060E070E00E94A709882309F0C7C004
:101FA000E881F981BE9680E092E001C0119201972C
:101FB000BFEF8F3F9B07D1F7888099804EEFA42E0B
:101FC0004FEFB42E4FEFC42E4FEFD42EAE0CBF1CEC
:101FD000C01ED11EF401828D938DA48DB58D029704
:101FE000A109B109A816B906CA06DB0628F020E047
:101FF00030E040E050E015C0D40112962C9130E062
:1020000040E050E0C601B5010E94944E9B01AC0136
:10201000F40186A197A1A0A5B1A5280F391F4A1FD9
:102020005B1FD4019A962D933D934D935C939D979E
:10203000DD24CC24C3941AC0C4828881998140E0F5
:1020400050E060E070E00E94A709882309F06FC0AB
:10205000E881F98182A593A5A4A5B5A50196A11D46
:10206000B11D82A793A7A4A7B5A7D394E881F9814E
:102070008281D81608F382A593A5A4A5B5A58D19CC
:102080009109A109B10982A793A7A4A7B5A7EA86D8
:10209000FB860C871D87C880D9808EEF9FEFAFEF3E
:1020A000BFEFE80EF91E0A1F1B1FF601828D938DEC
:1020B000A48DB58D0297A109B109E816F9060A07A2
:1020C0001B0728F020E030E040E050E015C0D601CA
:1020D00012962C9130E040E050E0C801B7010E9418
:1020E000944E9B01AC01F60186A197A1A0A5B1A5D4
:1020F000280F391F4A1F5B1F2E873F87488B598B3C
:102100006C827D8235E0440C551C3A95E1F78EE2F5
:1021100090E0480E591E88819981840D951D8A8B07
:102120009B8B80E005C084E003C082E001C081E0B9
:10213000DF91CF911F910F91FF90EF90DF90CF90A3
:10214000BF90AF909F908F907F906F905F904F90D7
:102150000895CF93DF93EC0194E01AC088819981B0
:102160000E94A709982F8823F1F4EA89FB898081CE
:10217000882309F1853E29F08E3219F0838583FF8B
:1021800016C0CE0160E00E942C0F982F882359F4CE
:102190004E855F856889798941155105610571050D
:1021A000E9F6992321F01E861F86188A198A892F3D
:1021B000DF91CF91089594E0F6CFCF93DF93EC01B8
:1021C00060E070E00E94300E482F8823E9F54E85CC
:1021D0005F8568897989888199810E94A709482F3C
:1021E000882391F5EA89FB89E081E53E89F1EE23B8
:1021F00079F1CE0161E00E942C0FE6CF6A897B89DC
:10220000FB0180E290E001C0119201972FEF8F3F18
:102210009207D1F78C899D899C01D901FB012BE0A4
:1022200030E002C08D918193215030408FEF2F3FDD
:102230003807C1F7EC89FD8983858871FB018487A4
:10224000E881F98181E08483842FDF91CF91089523
:102250004E855F8568897989888199810E94A7095F
:10226000482F882359F2F0CFCF93DF93EC016C8194
:102270007D810E94300E982F882399F44E855F85CA
:1022800068897989888199810E94A709982F882374
:1022900041F4EA89FB8985EE8083E881F98181E058
:1022A0008483892FDF91CF910895EF92FF920F934E
:1022B0001F93CF93DF93FC017B01EB012996868569
:1022C0009785A089B1890097A105B10509F471C06E
:1022D0006289738980E090E0FB01E80FF91FE081DB
:1022E000E03241F0E53009F4E5EEE99301968830FB
:1022F000910591F7DB0118968C91803211F48E01D3
:1023000012C08EE2FE0181938F01FB019E012C5FC2
:102310003F4F8085803239F0D8018D938D01319601
:10232000A217B307B1F7FB018385D70118968C93E9
:10233000278D30E040E050E0522F442733272227FA
:10234000868D90E0A0E0B0E0DC0199278827282B5B
:10235000392B4A2B5B2B848D90E0A0E0B0E0282B3A
:10236000392B4A2B5B2B958D80E0A0E0B0E0282B29
:10237000392B4A2B5B2BF701208331834283538314
:10238000DB0159969C91599780E058962C9158976B
:1023900030E0822B932B8483958357969C9157979B
:1023A00080E056962C9130E0822B932B8683978386
:1023B000E8011882DF91CF911F910F91FF90EF906C
:1023C00008955F926F927F928F929F92AF92BF9289
:1023D000CF92DF92EF92FF920F931F93CF93DF93F1
:1023E000EC017B0103C00894E11CF11CF701808122
:1023F0008032C9F38F3211F08C3519F40894E11C46
:10240000F11C1E821F8218861986F7018081803296
:1024100040F4CE0160E070E00E94300E1A8A1B8A00
:1024200013C100E245E0542EAC89BD89FD018BE06B
:1024300090E001C0019301972FEF8F3F9207D1F7F2
:1024400040E050E0CC24DD2438E0A32EB12C10E095
:10245000F701EC0DFD1D20810894C11CD11C213217
:1024600008F466C02F3209F4FFC02C3509F4FCC013
:102470002E3219F04A155B0584F088E0A816B104E5
:1024800009F0DDC02E3209F0DAC0110F110F48E05B
:1024900050E02BE0A22EB12CDBCF27FD1360822F62
:1024A00081588F3118F08F558D3108F5F701EC0DFB
:1024B000FD1D3081832F80548F3320F080548D3761
:1024C00008F0BDC0C5010197481759070CF0B7C007
:1024D0000894C11CD11CFD01E40FF51F2083CA0123
:1024E0000196FD01E80FF91F3083AC011EC0622F79
:1024F00070E0E0E0F0E201C031968081882329F0AD
:1025000090E086179707C1F79AC0822F81548A31CD
:1025100010F4126006C0822F81568A3110F41160C7
:102520002052FD01E40FF51F20834F5F5F4F90CFD6
:10253000912F64E0452B09F482C08C91853E09F40B
:102540005C92E8E0AE16B10419F4912F990F990F3F
:10255000292F30E0C90183709070019709F4606100
:102560002C7030702430310509F468601B966C9330
:10257000CE0160E070E00E94300E482F882371F594
:102580004E855F8568897989888199810E94A7092C
:10259000482F882319F5EA89FB898081882311F463
:1025A00044E01CC0838583FD14C0DF018C899D89B4
:1025B0009C01F9012BE030E0215030408FEF2F3F9C
:1025C000380761F09C918081981719F41196319623
:1025D000F3CFCE0160E00E942C0FCFCFEC89FD89B4
:1025E00093859470442331F0842F443051F599231E
:1025F00051F12AC0992329F5EA89FB89838584FF53
:1026000022C0EC0CFD1C75886624248930E0262944
:10261000372940E050E0A90133272227938C8824F2
:10262000828D90E088299929A0E0B0E0282B392BF1
:102630004A2B5B2B2E833F8348875987F5CE86E054
:1026400003C0842F01C085E0DF91CF911F910F91CE
:10265000FF90EF90DF90CF90BF90AF909F908F90C2
:102660007F906F905F900895912F60E063CF0F93FC
:10267000CF93DF93EC019A01AB01BC01625D7F4F08
:10268000898101E00E94E306882311F063E06DC0B8
:10269000C35DDD4F988180E02A91CC52D24030E07A
:1026A000822B932B85559A4A11F062E05EC0C9597E
:1026B000DF4F288130E040E050E0522F442733279D
:1026C00022278A9190E0A0E0B0E0DC0199278827DA
:1026D000282B392B4A2B5B2B2297899190E0A0E085
:1026E000B0E0282B392B4A2B5B2B9881C556D04064
:1026F00080E0A0E0B0E0282B392B4A2B5B2B5070F8
:10270000265431444445504011F460E02EC060E04E
:10271000CD57DF4F288130E040E050E0522F442772
:10272000332722278A9190E0A0E0B0E0DC019927CE
:102730008827282B392B4A2B5B2B2297899190E0F5
:10274000A0E0B0E0282B392B4A2B5B2B988180E04E
:10275000A0E0B0E0282B392B4A2B5B2B507026547D
:1027600031444445504009F061E0862FDF91CF911C
:102770000F9108956F927F928F929F92AF92BF9226
:10278000CF92DF92EF92FF920F931F93CF93DF933D
:10279000FC019B01F42EA081B1818C91082F10E0E7
:1027A000005310400A30110568F411968C9111976E
:1027B0008A3341F41296A083B1830230110520F0D0
:1027C0008BE091C200E010E0F801EE0FFF1FE1572F
:1027D000F24DC081D181F901C083D183209711F4DA
:1027E0008CE081C28881882379F08981882311F067
:1027F00081E002C08091D42C80FD06C0FF2009F446
:102800006FC282FD6BC26CC21882F801EE0FFF1F0F
:10281000EA5DF94D808189830E94F60580FF02C040
:1028200083E061C2FF2011F082FD58C2CE0140E07A
:1028300050E060E070E00E943713813021F0AA245C
:10284000BB2465013DC0000F111F0A5D194DF80141
:102850008181E82FF0E0A4E0EE0FFF1FAA95E1F7D9
:10286000E451FE4FEC0FFD1F8481882309F43AC226
:10287000838590E0A0E0B0E0D82ECC24BB24AA242D
:10288000828590E0A0E0B0E0DC0199278827A82AA3
:10289000B92ACA2ADB2A808590E0A0E0B0E0A82A05
:1028A000B92ACA2ADB2A918580E0A0E0B0E0A82AF4
:1028B000B92ACA2ADB2ACE01B601A5010E94371324
:1028C000833011F481E00FC2882309F00BC29AAD66
:1028D00080E029AD30E0822B932B8050924009F0AC
:1028E00001C2CB5BDF4F988180E02A91C454D04075
:1028F00030E0822B932B7C0100E010E0E114F10426
:102900000105110541F5CB5ADF4F888190E0A0E029
:10291000B0E0182F0027FF24EE248A9190E0A0E079
:10292000B0E0DC0199278827E82AF92A0A2B1B2B1B
:102930002297899190E0A0E0B0E0E82AF92A0A2BDA
:102940001B2B9881C355D04080E0A0E0B0E0E82A7E
:10295000F92A0A2B1B2BEE8AFF8A088F198F2EADBE
:102960002B8330E040E050E0C801B7010E94944E54
:102970003B014C019DAD80E02CAD30E0822B932BD0
:10298000A0E0B0E08A0D9B1DAC1DBD1D8E8F9F8FFA
:10299000A8A3B9A38BAD8A83C05CDF4F9881C054D4
:1029A000D04080E02FAD422F50E0482B592B488774
:1029B0005987CE5BDF4F988180E02A91C154D04087
:1029C00030E0822B932B7C0100E010E0E114F10455
:1029D0000105110541F5CF5ADF4F888190E0A0E055
:1029E000B0E0182F0027FF24EE248A9190E0A0E0A9
:1029F000B0E0DC0199278827E82AF92A0A2B1B2B4B
:102A00002297899190E0A0E0B0E0E82AF92A0A2B09
:102A10001B2B9881CF54D04080E0A0E0B0E0E82AA2
:102A2000F92A0A2B1B2B9DAD80E02CAD30E0822BC8
:102A3000932BA0E0B0E0E81AF90A0A0B1B0BE6188A
:102A4000F70808091909F4E056954795FA95E1F752
:102A5000CA01A0E0B0E0E81AF90A0A0B1B0B2A81B0
:102A600030E040E050E0C801B7010E94DA4E2E5F2E
:102A70003F4F4F4F5F4F2A8F3B8F4C8F5D8F273FCC
:102A80008FE0380780E0480780E0580710F411E035
:102A900007C0275F3F4F4040504008F033C112E06D
:102AA0008E8D9F8DA8A1B9A1860D971DA81DB91D5A
:102AB0008AA39BA3ACA3BDA388859985E4E09695E2
:102AC0008795EA95E1F7A0E0B0E02E8D3F8D48A113
:102AD00059A1820F931FA41FB51F860D971DA81D16
:102AE000B91D8EA39FA3A8A7B9A78FEF9FEFAFEF44
:102AF000BFEF8E879F87A88BB98B1C82133009F09C
:102B0000DCC01D82C15ADF4F388120E08A91CE554A
:102B1000D04090E0282B392B40E050E02A0D3B1D9F
:102B20004C1D5D1D2A8B3B8B4C8B5D8BBE01625D0A
:102B30007F4F898101E00E94E306882309F0BDC030
:102B4000C35DDD4F988180E02A91CC52D24030E0C5
:102B5000822B932B85559A4A09F0AFC029A930E002
:102B600040E050E0522F44273327222788A990E0E5
:102B7000A0E0B0E0DC0199278827282B392B4A2BCD
:102B80005B2B8EA590E0A0E0B0E0282B392B4A2BE0
:102B90005B2B9FA580E0A0E0B0E0282B392B4A2BCF
:102BA0005B2B225532454146514409F086C0CB5E2D
:102BB000DD4F288130E040E050E0522F442733279A
:102BC00022278A9190E0A0E0B0E0DC0199278827D5
:102BD000282B392B4A2B5B2B2297899190E0A0E080
:102BE000B0E0282B392B4A2B5B2B9881C351D24064
:102BF00080E0A0E0B0E0282B392B4A2B5B2B22573A
:102C000032474144514609F058C0C35EDD4F288128
:102C100030E040E050E0522F4427332722278A91AA
:102C200090E0A0E0B0E0DC0199278827282B392B21
:102C30004A2B5B2B2297899190E0A0E0B0E0282BF3
:102C4000392B4A2B5B2B9881CB51D24080E0A0E0FE
:102C5000B0E0282B392B4A2B5B2B2A873B874C87EC
:102C60005D87C75EDD4F288130E040E050E0522FA5
:102C70004427332722278A9190E0A0E0B0E0DC01CE
:102C800099278827282B392B4A2B5B2B2297899150
:102C900090E0A0E0B0E0282B392B4A2B5B2B9881E9
:102CA000C751D24080E0A0E0B0E0282B392B4A2B5E
:102CB0005B2B2E873F87488B598B18831AA61BA640
:102CC0001CA61DA68091932D9091942D0196809322
:102CD000932D9093942D8E839F8302C08AE003C02E
:102CE00080E001C08DE0DF91CF911F910F91FF90A7
:102CF000EF90DF90CF90BF90AF909F908F907F909C
:102D00006F900895C35ADF4F288130E040E050E0D3
:102D1000522F4427332722278A9190E0A0E0B0E089
:102D2000DC0199278827282B392B4A2B5B2B2297EC
:102D3000899190E0A0E0B0E0282B392B4A2B5B2B47
:102D40009881CB55D04080E0A0E0B0E0282B392B13
:102D50004A2B5B2B2AA33BA34CA35DA313E0ACCE71
:102D6000FC010097A9F08081882391F086819781EA
:102D70008617970769F48181882311F081E002C0EA
:102D80008091D42C80FD02C080E0089583E00895F6
:102D900089E00895CF93DF93EB01823010F08BE050
:102DA00017C0A82FB0E0FD01EE0FFF1FE157F24D55
:102DB0000190F081E02D309709F01082209709F002
:102DC0001882AA0FBB1FA157B24DCD93DC9380E0B0
:102DD000DF91CF9108955F926F927F928F929F9231
:102DE000AF92BF92CF92DF92EF92FF920F931F9319
:102DF000DF93CF93CDB7DEB7A497CDBFDEBF3C0145
:102E00006BA37CA3DC011D921C923FE1532E542244
:102E10008E01035F1F4F4E71CE018396B8010E9451
:102E2000BA13882311F0282F32C1CE01019689A34D
:102E30009AA36BA17CA1C8010E94E111282F452D06
:102E400050E0CA018C719070892B09F484C0222350
:102E500079F0243009F01BC1C8010E94DD10282F31
:102E6000882309F014C1B8E05B2A0F8D18A15BC05C
:102E700052FE02C028E00BC10F8D18A101151105EB
:102E800009F402C1F8018385817109F0FDC053FE88
:102E90004AC0958980E0248930E0822B932BA0E002
:102EA000B0E07C01DD24CC24938D80E0228D30E0E5
:102EB000822B932BA0E0B0E0C82AD92AEA2AFB2A69
:102EC000148A158A128E138E148E158E168E178EF6
:102ED000ED85FE8581E0848382A493A4A4A4B5A497
:102EE000C114D104E104F104A1F0CF01B701A6019E
:102EF0000E94850C282F882309F0C9C0ED85FE8526
:102F00000894C108D108E108F108C286D386E48696
:102F1000F5868D859E85B501A4010E94A709282FFD
:102F2000882309F0B4C053FE27C0D8011B961C9219
:102F30001B971E961C921E971F961C921F975096C9
:102F40001C92509751961C92ED85FE8581E08483FA
:102F5000B0E25B2A11C0222309F099C00F8D18A19D
:102F60000115110509F492C0F801838584FD8EC016
:102F700051FE02C080FD88C0ED85FE8522A533A5E7
:102F800044A555A5D3015A962D933D934D935C933B
:102F90005D978F8D98A15E968D939C935F97149605
:102FA0005C92D80155963C91559720E054968C91AF
:102FB000549790E0282B392B40E050E0A9013327AB
:102FC00022275B969C915B9780E05A966C9170E00B
:102FD000862B972BA0E0B0E0282B392B4A2B5B2BBC
:102FE000D3011E962D933D934D935C935197D80139
:102FF0005F962C915F9730E040E050E0522F4427DD
:10300000332722275E968C9190E0A0E0B0E0DC01AF
:1030100099278827282B392B4A2B5B2BD8015C96C4
:103020008C9190E0A0E0B0E0282B392B4A2B5B2B51
:10303000D8015D969C9180E0A0E0B0E0282B392B70
:103040004A2B5B2BD3011A962D933D934D935C93A2
:103050001D9716961D921D921D921C9219978FEF27
:1030600015968C93159756961D921D921D921C9243
:103070005997ED93FC9311978681978112968D93C2
:103080009C93139720E003C027E001C024E0822F27
:10309000A496CDBFDEBFCF91DF911F910F91FF901E
:1030A000EF90DF90CF90BF90AF909F908F907F90E8
:1030B0006F905F9008952F923F924F925F926F9220
:1030C0007F928F929F92AF92BF92CF92DF92EF92B8
:1030D000FF920F931F93DF93CF9300D00F92CDB742
:1030E000DEB78B839C83162F072F4A0129833A83EF
:1030F000D9011D921C92FC016281738180819181B2
:103100000E94B016782E882309F0B4C1AB81BC812F
:1031100014968C9187FD66C080FD03C0A7E07A2ECF
:10312000A9C1EB81FC812285338544855585868143
:103130009781A085B185281B390B4A0B5B0BC40115
:10314000A0E0B0E0281739074A075B0708F44901F7
:10315000812F902F9C012901F0E22F2E312C6B81C1
:103160007C81260E371E82C1AB81BC8116962D91C3
:103170003D914D915C911997DA01C9019170A07050
:10318000B0700097A105B10509F02CC1AB81BC81DD
:10319000ED91FC91119715969C9115978281981746
:1031A000A0F1211531054105510539F41E966D91A7
:1031B0007D918D919C9151970BC0AB81BC815296B2
:1031C0004D915D916D917C915597CF010E94AF0A11
:1031D000623071058105910540F4EB81FC818481A9
:1031E00080688483E2E07E2E45C16F3FFFEF7F075A
:1031F000FFEF8F07FFEF9F0709F4E0C0EB81FC8131
:10320000628B738B848B958B1582AB81BC810D9106
:103210001C91119752962D913D914D915C9155972E
:103220002250304040405040F801828D938DA48D53
:10323000B58D0297A109B109281739074A075B071D
:10324000B8F46280662D70E080E090E00E94944EB9
:103250009B01AC01F80186A197A1A0A5B1A5280FFB
:10326000391F4A1F5B1F211531054105510549F4DE
:10327000AB81BC8114968C911497806814968C93C2
:10328000B1CFEB81FC81858159016A01A80EB11C87
:10329000C11CD11C7401EF2CFF24E694E114F1044D
:1032A00009F453C0282F30E0C701820F931F662D09
:1032B00070E06817790718F47B01E21AF30AD80165
:1032C00011968C91B201A60195010E2D0E94E30684
:1032D000EB81FC819481882319F09068948376C0F7
:1032E00096FF29C0AB81BC8156962D913D914D91A1
:1032F0005C9159972A193B094C095D09C701A0E067
:10330000B0E0281739074A075B07A8F469E0220FE5
:10331000331F441F551F6A95D1F7C201820F931FB7
:10332000D101FC019C0120503E4F02C08D91819340
:10333000E217F307D9F7EB81FC8185818E0D858338
:10334000B701762F6627770F74C0AB81BC811496C6
:103350008C91149786FF1BC056962D913D914D91EF
:103360005C915997F8018181B10101E00E94430706
:10337000AB81BC8114969C911497882321F09068AE
:1033800014969C9323C09F7BEB81FC819483EB81FB
:10339000FC8186899789A08DB18D8A159B05AC0526
:1033A000BD05B9F00190F081E02D8181B101A60148
:1033B000950101E00E94E306882359F0AB81BC81AE
:1033C00014968C911497806814968C937724739438
:1033D00051C0EB81FC81A68AB78AC08ED18E8581CF
:1033E0008F5F8583AB81BC8116962D913D914D9168
:1033F0005C911997C9019170E0E0F2E0E81BF90BCC
:10340000B401E815F90508F4BF018B01F901F17069
:10341000B0968B819C81E80FF91F920104C08191C5
:10342000D9018D939D0101501040BFEF0F3F1B0745
:10343000B1F7460E571ECB01A0E0B0E0EB81FC8156
:103440002681378140855185280F391F4A1F5B1F10
:103450002683378340875187E981FA818081918172
:10346000860F971F80839183861A970A811491048F
:1034700009F07ACE872D2496CDBFDEBFCF91DF91A4
:103480001F910F91FF90EF90DF90CF90BF90AF9082
:103490009F908F907F906F905F904F903F902F9074
:1034A00008952F923F924F925F926F927F928F92E8
:1034B0009F92AF92BF92CF92DF92EF92FF920F93C3
:1034C0001F93DF93CF9300D00F92CDB7DEB78B83DE
:1034D0009C83162F072F4A0129833A83D9011D9215
:1034E0001C92FC0162817381808191810E94B016DF
:1034F000682E882309F002C2AB81BC8114968C919E
:1035000087FD7CC081FD03C047E0642EF7C1EB81DD
:10351000FC812285338544855585C401A0E0B0E057
:10352000820F931FA41FB51F82179307A407B50727
:1035300010F488249924812F902F9C01290130E2D6
:10354000232E312C6B817C81260E371EB2C1AB81BC
:10355000BC8116962D913D914D915C911997DA01A0
:10356000C9019170A070B0700097A105B10509F074
:1035700058C1AB81BC81ED91FC91119715969C913E
:1035800015978281981708F454C02115310541051B
:103590005105C9F41E966D917D918D919C91519725
:1035A0006115710581059105F9F4CF0140E050E006
:1035B00060E070E00E94000DEB81FC8166877787F8
:1035C000808B918B0BC0AB81BC8152964D915D91EC
:1035D0006D917C915597CF010E94000D6115710589
:1035E0008105910509F469C1613071058105910575
:1035F00041F4EB81FC8184818068848322E0622E27
:103600007DC16F3FFFEF7F07FFEF8F07FFEF9F0742
:1036100049F4AB81BC8114968C9114978068149600
:103620008C93EEC0EB81FC81628B738B848B958BCA
:103630001582AB81BC8114968C91149786FF1BC0B8
:10364000ED91FC91119756962D913D914D915C9184
:1036500059978181B10101E00E944307EB81FC8110
:103660009481882319F090689483CAC09F7BAB81B2
:10367000BC8114969C93EB81FC810081118122898D
:103680003389448955892250304040405040F801E8
:10369000828D938DA48DB58D0297A109B10928174C
:1036A00039074A075B07B8F47280672D70E080E045
:1036B00090E00E94944E9B01AC01F80186A197A175
:1036C000A0A5B1A5280F391F4A1F5B1F2115310581
:1036D0004105510549F4AB81BC8114968C91149736
:1036E000806814968C938ACFEB81FC818581690177
:1036F0007A01C80ED11CE11CF11C5401AB2CBB2477
:10370000A694A114B10409F453C0282F30E0C501D8
:10371000820F931F672D70E06817790718F45B011B
:10372000A21AB30AD80111968C91B201A701960191
:103730000A2D0E944307882309F05DC0AB81BC813C
:1037400056962D913D914D915C9159972C193D09BB
:103750004E095F09C501A0E0B0E0281739074A0704
:103760005B07C8F419E0220F331F441F551F1A9539
:10377000D1F7F201E20FF31FD1019F0120503E4F1C
:1037800002C081918D93E217F307D9F7EB81FC8199
:1037900084818F7B8483AB81BC8115968C91159736
:1037A0008A0D15968C93B501762F6627770F64C026
:1037B000EB81FC8186899789A08DB18D8C159D0543
:1037C000AE05BF0501F1268137814085518582858F
:1037D0009385A485B585281739074A075B0798F4B0
:1037E000D80111968C91B101A701960101E00E94C8
:1037F000E306882341F0EB81FC8184818068848327
:10380000662463947BC0AB81BC815696CD92DD92D9
:10381000ED92FC92599715968C9115978F5F15969E
:103820008C93EB81FC812681378140855185C901CC
:10383000917060E072E0681B790BCB01B4018815D0
:10384000990508F4BC018B01F901F170B0968B81E8
:103850009C81E80FF91F920104C0D9018D919D014F
:10386000819301501040BFEF0F3F1B07B1F7EB8171
:10387000FC81848180648483460E571ECB01A0E0C6
:10388000B0E0EB81FC812681378140855185280F8E
:10389000391F4A1F5B1F2683378340875187E98181
:1038A000FA8180819181860F971F80839183861A88
:1038B000970A8114910409F04ACEAB81BC81169617
:1038C0002D913D914D915C9119971A968D919D91F5
:1038D0000D90BC91A02D82179307A407B50730F473
:1038E000EB81FC812287338744875587AB81BC817C
:1038F00014968C911497806214968C93862D24963E
:10390000CDBFDEBFCF91DF911F910F91FF90EF9060
:10391000DF90CF90BF90AF909F908F907F906F90EF
:103920005F904F903F902F9008950F93CF93DF9328
:10393000EC016A817B81888199810E94B016982F61
:10394000882309F065C08C8185FF62C086FF14C0A2
:10395000E881F981BE01605E7F4F2E893F89488DE5
:10396000598D818101E00E944307882311F091E085
:103970004FC08C818F7B8C834A8D5B8D6C8D7D8D50
:10398000888199810E94A709982F882309F040C057
:10399000EE8DFF8D8385806283878A85848F8B85FA
:1039A000858F8A859B85AC85BD85CD01AA27BB27E0
:1039B000868F8A859B85AC85BD858B2F9927AA2705
:1039C000BB27878F8E85828F8F85838F8E859F857E
:1039D000A889B989CD01AA27BB27848B8E859F85AD
:1039E000A889B989CD01AA27BB27892F9927858B5B
:1039F000168A178A108E118E8C818F7D8C83E881B8
:103A0000F98181E08483888199810E94200A982F1E
:103A1000892FDF91CF910F910895CF93DF93EC0120
:103A20000E94951C882311F418821982DF91CF918E
:103A300008952F923F924F925F926F927F928F9252
:103A40009F92AF92BF92CF92DF920F931F93DF931B
:103A5000CF93CDB7DEB72897CDBFDEBF8F839887D2
:103A60003A014B01DC0112966D917C9113978D9177
:103A70009C910E94B016182F882309F0F3C1EF81A2
:103A8000F885848187FD98C0AF81B8851A96AD907E
:103A9000BD90CD90DC901D97A614B704C804D9043E
:103AA00010F481FF02C064015301EF81F885268183
:103AB00037814085518516821782108611868FEFD7
:103AC0008583A114B104C104D10409F45FC101903C
:103AD000F081E02DE983FA838281682E772488249F
:103AE000992489E0660C771C881C991C8A95D1F76B
:103AF0002115310541055105F1F119012A010894FB
:103B00002108310841085108C601B50161507040D3
:103B100080409040A40193010E94DA4E2B833C83A5
:103B20004D835E83C201B101A40193010E94DA4E6C
:103B30008B819C81AD81BE8182179307A407B50755
:103B4000D0F088279927DC0186199709A809B909B7
:103B500082219321A421B521EF81F8858683978363
:103B6000A087B187A81AB90ACA0ADB0A4289538911
:103B70006489758939C0AF81B8851E964D915D9174
:103B80006D917C915197411551056105710521F5A4
:103B900089819A8140E050E060E070E00E94000D71
:103BA000AB01BC01413051056105710539F4EF816C
:103BB000F88584818068848312E054C14F3FFFEF11
:103BC0005F07FFEF6F07FFEF7F07B1F1EF81F88528
:103BD00046875787608B718BAF81B88552964D931E
:103BE0005D936D937C935597411551056105710562
:103BF00009F058C0CBC0EF81F885848120813181E4
:103C000081FF0DC0C9010E94000DAB01BC0141152F
:103C100051056105710541F46401530149C0C901B1
:103C20000E94AF0AAB01BC014F3FFFEF5F07FFEF00
:103C30006F07FFEF7F0749F4AF81B88514968C9129
:103C40001497806814968C93EDC04230510561053D
:103C5000710508F4ACCFAF81B885ED91FC91828DF0
:103C6000938DA48DB58D481759076A077B0708F017
:103C70009ECFAF81B88552964D935D936D937C93A3
:103C80005597FD0186819781A085B185860D971D89
:103C9000A81DB91D86839783A087B187A618B7088A
:103CA000C808D9086A147B048C049D0408F4A3CFC7
:103CB000EF81F88586819781A085B1858A0D9B1D4E
:103CC000AC1DBD1D86839783A087B187D601C50132
:103CD00009E0B695A795979587950A95D1F7082F8E
:103CE00085838FEF91E0A0E0B0E0A822B922CA223C
:103CF000DB22A114B104C104D10409F447C08080BF
:103D000091803EEFA32E3FEFB32E3FEFC32E3FEF48
:103D1000D32EA40EB51EC61ED71EF401828D938D20
:103D2000A48DB58D0297A109B109A816B906CA06D6
:103D3000DB06C0F4228130E040E050E0C601B5016E
:103D40000E94944E9B01AC01F40186A197A1A0A50D
:103D5000B1A5280F391F4A1F5B1F211531054105E9
:103D6000510549F4AF81B88514968C9114978068F9
:103D700014968C9321CF59016A01A00EB11CC11C6D
:103D8000D11C0F5FEF81F885058303C0AA24BB24F3
:103D90006501EF81F88586819781A085B185917055
:103DA000A070B0700097A105B10509F445C026893F
:103DB0003789408D518DA216B306C406D506E1F1B0
:103DC000848186FF1AC00190F081E02D6F81788593
:103DD000605E7F4F818101E00E944307AF81B8851B
:103DE00014969C911497882321F0906814969C93C4
:103DF00019C09F7BEF81F8859483AF81B885ED91E1
:103E0000FC911197BD01605E7F4F8181A6019501F4
:103E100001E00E94E306882339F0EF81F885848170
:103E20008068848311E01EC0AF81B8855696AD923C
:103E3000BD92CD92DC925997EF81F885268137812A
:103E40004085518582859385A485B5858217930722
:103E5000A407B50738F422873387448755878481C0
:103E600080628483812F2896CDBFDEBFCF91DF9102
:103E70001F910F91DF90CF90BF90AF909F908F9048
:103E80007F906F905F904F903F902F9008950F9389
:103E90001F93DF93CF93CDB7DEB72E97CDBFDEBF95
:103EA0008C016D877E87CE010D96B80140E00E949F
:103EB000BA13882309F046C0CE010196D801549662
:103EC0008D939C9355976D857E85C8010E94E11165
:103ED0008823A9F5D8015296ED91FC91539730971C
:103EE000F9F0838584FF2DC0358920E0848990E036
:103EF000282B392B40E050E0A90133272227938D4E
:103F000080E0628D70E0862B972BA0E0B0E0282B3C
:103F1000392B4A2B5B2BF801268337834087518747
:103F2000D801ED91FC9111978681978112968D931E
:103F30009C931397C80160E070E00E94300E8430BB
:103F400009F485E02E96CDBFDEBFCF91DF911F91A2
:103F50000F910895EF92FF920F931F93DF93CF93EA
:103F6000CDB7DEB72C97CDBFDEBF8C017B01FC0146
:103F700062817381808191810E94B016882359F5F6
:103F8000CE010196F801848B958BE114F10431F494
:103F9000C80160E070E00E94300E1DC0C8010E94A0
:103FA000A910843031F4F80116861786108A118A18
:103FB00002C0882381F4C801B7010E945511C801CD
:103FC00060E00E942C0F843031F4F80116861786C9
:103FD000108A118A80E02C96CDBFDEBFCF91DF9191
:103FE0001F910F91FF90EF900895CF92DF92EF9283
:103FF000FF921F93DF93CF93CDB7DEB7A497CDBFCA
:10400000DEBF8BA39CA36B012DE0E22EF12CEC0E06
:10401000FD1ECE018396B70140E00E94BA13182F0F
:104020008823B1F4CE01019689A39AA36BA17CA148
:10403000C7010E94E111182F882351F48F8D98A198
:10404000892B11F416E004C0C701B6010E94551176
:10405000812FA496CDBFDEBFCF91DF911F91FF903E
:10406000EF90DF90CF9008952F923F924F925F9202
:104070006F927F928F929F92AF92BF92CF92DF9278
:10408000EF92FF920F931F93DF93CF93CDB7DEB7DD
:104090002997CDBFDEBF89839A836C837D832A01F4
:1040A000CE010196BA0140E00E94BA13882309F0BC
:1040B000EBC0D201ED91FC9126853785408951896D
:1040C000E28CF38C048D158DD801C7010297A109EC
:1040D000B10982179307A407B50738F0EC81FD8179
:1040E0002083318342835383CEC030803B82232D93
:1040F0002130E1F5AA24BB24650192E0E92EF12CE0
:10410000012D112DD2018D919C91B801A7010E9422
:10411000AF0A6F3FBFEF7B07BFEF8B07BFEF9B0778
:1041200011F481E0B1C0613071058105910511F490
:1041300082E0AAC0611571058105910529F40894F2
:10414000A11CB11CC11CD11C0894E11CF11C011D57
:10415000111DD201ED91FC91828D938DA48DB58DB1
:10416000E816F9060A071B0768F27BC0668C778C95
:1041700080A091A0AA24BB24650160E070E0E0E08B
:10418000F0E061157105A9F4F20180819181B4011B
:10419000A3010E94A709882309F076C00894611C36
:1041A000711C811C911CD201ED91FC91BE9660E0C6
:1041B00072E0B181B887208129873B81323099F440
:1041C000BF831E82822F90E0AE81BF818A2B9B2B02
:1041D000892B29F40894A11CB11CC11CD11C329656
:1041E0006250704033C0238130E040E050E0522FF5
:1041F000442733272227828190E0A0E0B0E0DC0151
:1042000099278827282B392B4A2B5B2B3984832D20
:1042100090E0A0E0B0E0282B392B4A2B5B2B3884B0
:104220002224C101A0E0B0E0282B392B4A2B5B2BC4
:104230005F70211531054105510529F40894A11C31
:10424000B11CC11CD11C3496645070400894E10824
:10425000F10801091109E114F1040105110509F042
:1042600090CFD201ED91FC91A686B786C08AD18A03
:10427000BB81B33011F481E08583EC81FD81A082A4
:10428000B182C282D38280E02996CDBFDEBFCF91BA
:10429000DF911F910F91FF90EF90DF90CF90BF9033
:1042A000AF909F908F907F906F905F904F903F90D6
:1042B0002F900895CF92DF92EF92FF920F931F936A
:1042C000CF93DF93EC016A817B81888199810E9481
:1042D000B016182F882309F06EC06C8167FF02C0EA
:1042E00012E069C061FD02C017E065C02E813F8108
:1042F000488559858A859B85AC85BD8528173907F2
:104300004A075B0708F057C02A873B874C875D87C1
:1043100060626C83888199812115310541055105C1
:1043200061F44E855F85688979890E94850C182F14
:104330001E861F86188A198A39C04A895B896C894A
:104340007D890E94AF0A6B017C018FEFC8168FEF49
:10435000D8068FEFE8068FEFF806B9F181E0C816AE
:10436000D104E104F10411F412E022C0E881F981E2
:10437000828D938DA48DB58DC816D906EA06FB06ED
:10438000D0F44A895B896C897D89CF010FEF1FEFDB
:104390002FEF3FE00E94990B182F882349F4888162
:1043A0009981B701A6010E94850C182F112319F0DD
:1043B0008C8180688C83812FDF91CF911F910F9129
:1043C000FF90EF90DF90CF90089511E0F1CFCF9262
:1043D000DF92EF92FF920F931F93DF93CF93CDB7AE
:1043E000DEB7EA97CDBFDEBF89AF9AAF4DE0C42EEE
:1043F000D12CCC0EDD1ECE01C996B60141E00E9443
:10440000BA13882309F071C0CE01019689A39AA33B
:1044100069AD7AADC6010E94E111882309F065C03B
:10442000EF8DF8A1309711F486E05FC08385482FA7
:1044300080FD5AC0958980E0248930E0822B932B3F
:10444000A0E0B0E08C01FF24EE24938D80E0228D6B
:1044500030E0822B932BA0E0B0E0E82AF92A0A2B67
:104460001B2B44FF29C082E0E816F1040105110569
:1044700010F482E03AC0DE019396F6019D0102C07D
:1044800081918D93E217F307D9F7E9A6FAA60BA756
:104490001CA723E2C22ED12CCC0EDD1EC60162E089
:1044A00070E00E94300E882301F5C6010E94A91019
:1044B0008823D1F08430C9F4CE010D960E943411C6
:1044C000882399F4E114F1040105110541F08D856B
:1044D0009E85B801A7010E94850C882331F48D8543
:1044E0009E850E94200A01C087E0EA96CDBFDEBF0C
:1044F000CF91DF911F910F91FF90EF90DF90CF90C0
:1045000008952F923F924F925F926F927F928F9277
:104510009F92AF92BF92CF92DF92EF92FF920F9352
:104520001F93DF93CF93CDB7DEB7A897CDBFDEBF84
:104530008BA39CA33DE0E32EF12CEC0EFD1ECE01DF
:104540008396B70141E00E94BA13182F882309F01F
:1045500038C1CE01019689A39AA36BA17CA1C701A2
:104560000E94E111182F882311F418E02AC1843029
:1045700009F027C18D859E8540E050E060E070E045
:104580000E94000D4B015C016115710581059105CB
:1045900011F417E016C1613071058105910511F420
:1045A00012E00FC16F3F3FEF73073FEF83073FEF0D
:1045B000930709F41DC18D859E8540E050E060E0C1
:1045C00070E00E94A709182F882309F0FAC00D8512
:1045D0001E852EEFC22E2FEFD22E2FEFE22E2FEFC1
:1045E000F22EC80CD91CEA1CFB1CF801828D938D9D
:1045F000A48DB58D0297A109B109C816D906EA069E
:10460000FB0620F044245524320114C0F801228115
:1046100030E040E050E0C701B6010E94944E2B010B
:104620003C01F80186A197A1A0A5B1A5480E591E8D
:104630006A1E7B1E9EE2292E312C200E311EF101B6
:1046400080E092E001C0119201972FEF8F3F920717
:10465000D1F7F1018BE090E020E201C021930197B6
:104660003FEF8F3F9307D1F78EE2F80186A780E1F5
:1046700081AF0C5B1F4FF8011192119211921192B0
:1046800088A681928F01892D99278FA38083C501E8
:10469000AA27BB278EA307501040F80181938F01F2
:1046A000892F99278DA3808303541040F10120E2C4
:1046B00030E003C0808180A33196215030408FEFDD
:1046C0002F3F3807B9F7015B1F4F8EE2F801808357
:1046D0000F5410402B893C894D895E89ED85FE85FC
:1046E0008081833069F482A193A1A4A1B5A1281788
:1046F00039074A075B0721F420E030E040E050E052
:1047000008591F4FF80121938F01832F9927808328
:10471000CA01AA27BB2707501040F8018193892FAF
:10472000992780837301620101E01EC0C2A6D3A64F
:10473000E4A6F5A60483CF0140E050E060E070E01D
:104740000E94A709182F8823E1F5F10180E092E08B
:1047500001C0119201972FEF8F3F9207D1F7089474
:10476000C11CD11CE11CF11CED85FE859C2D94190A
:1047700082819817D8F2CE010D960E94DD10182F75
:10478000882339F08D859E85B501A4010E94850C92
:1047900018C0EF8DF8A180E18387168A178A108EE2
:1047A000118E38A5328F8FA1838F2EA1248B3DA12E
:1047B000358BED85FE8581E08483CF010E94200A40
:1047C000182F812FA896CDBFDEBFCF91DF911F910B
:1047D0000F91FF90EF90DF90CF90BF90AF909F90A0
:1047E0008F907F906F905F904F903F902F900895A3
:1047F00011E0E7CFEF92FF920F931F93DF93CF93D8
:10480000CDB7DEB7A497CDBFDEBF8BA39CA3E62EAA
:10481000F42E8E01035F1F4FCE018396B80141E055
:104820000E94BA13882309F5CE01019689A39AA3A1
:104830006BA17CA1C8010E94E1118823B1F4EF8D26
:10484000F8A1309711F486E010C09F2D9772892F40
:104850008095238582239E21892B8387ED85FE8584
:1048600081E08483CF010E94200AA496CDBFDEBFE1
:10487000CF91DF911F910F91FF90EF900895EF92EC
:10488000FF920F931F93DF93CF93CDB7DEB7A4971B
:10489000CDBFDEBF8BA39CA38B014DE0E42EF12C9A
:1048A000EC0EFD1ECE018396B70141E00E94BA13C3
:1048B000882341F5CE01019689A39AA36BA17CA11F
:1048C000C7010E94E1118823E9F4EF8DF8A1309728
:1048D00011F486E017C0D80116968C911697868B36
:1048E00017968C911797878B14968C911497808FBD
:1048F00015968C91818FED85FE8581E08483CF01B3
:104900000E94200AA496CDBFDEBFCF91DF911F91F8
:104910000F91FF90EF900895CF92DF92EF92FF9268
:104920000F931F93DF93CF93CDB7DEB7CF54D04013
:10493000CDBFDEBF8E01025B1F4FD8018D939C93CC
:104940006B01CE0101968EAB9FABA2E2EA2EF12C59
:10495000EC0EFD1EC801B70141E00E94BA13882386
:1049600009F0F4C08AA19BA188AF99AFF8016081DA
:104970007181C7010E94E111882309F0E7C08CA969
:104980009DA9009711F484E0E1C0DC01FE013D9691
:1049900004C01A968C911A9781931196EE15FF0513
:1049A000C1F7DE01D896F7019D0102C081918D9378
:1049B000E217F307D9F78E01085C1F4FC801B60153
:1049C0000E94E111882311F488E0C0C0843009F00E
:1049D000BDC0C8010E94DD10882309F0B7C0FE01E8
:1049E000E65BFF4F40815181DA01FE013F9604C032
:1049F00081911C968C931C971196EE15FF05C1F7BB
:104A00008D858062DA011B968C931B97EAA1FBA12E
:104A100081E084831B968C911B9784FF8BC0C8AC6C
:104A2000D9AC5A962C915A9730E054968C91549761
:104A300090E0282B392B55969C91559780E0282B98
:104A4000392B5B969C9180E0282B392B790100E073
:104A500010E08EEF9FEFAFEFBFEFE80EF91E0A1FD9
:104A60001B1FF601828D938DA48DB58D0297A10930
:104A7000B109E816F9060A071B0708F066C022818B
:104A800030E040E050E0C801B7010E94944EAB0115
:104A9000BC01F60186A197A1A0A5B1A5480F591F99
:104AA0006A1F7B1F411551056105710509F44DC051
:104AB000C6010E94A709A8ADB9AD882309F046C078
:104AC000BD01625B7F4FFB0181818E3299F58C9134
:104AD0008330B1F4FE01FE96208131814281538101
:104AE00092968D919D910D90BC91A02D281739071C
:104AF0004A075B0729F420E030E040E050E006C0C0
:104B0000FE01FE962081318142815381DB015A965C
:104B10002C935A97832F99275B968C93CA01AA27C7
:104B2000BB27FB01848B892F9927858BE8ADF9ADD5
:104B300081E08483CE0182960E943411882331F46F
:104B40008AA19BA10E94200A01C082E0C15BDF4FC5
:104B5000CDBFDEBFCF91DF911F910F91FF90EF90FE
:104B6000DF90CF9008952F923F924F925F926F9275
:104B70007F928F929F92AF92BF92CF92DF92EF92ED
:104B8000FF920F931F93DF93CF93CDB7DEB7A49718
:104B9000CDBFDEBF68A33A01823010F08BE0E2C4E3
:104BA00028A1223008F0DBC4A82FB0E0AA0FBB1F59
:104BB000FD01E157F24DC080D180C114D10411F440
:104BC0008CE0D0C4F6011082AA5DB94DFC91F98B3E
:104BD0008F2F0E94F60580FF02C083E0C3C482FFCE
:104BE00002C08AE0BFC4898961E0AE014F5F5F4FB8
:104BF0000E94BB07882309F0B2C489819A81AB81E6
:104C0000BC81803D27E0920720E0A20720E0B207A8
:104C100008F4A5C481509040A04DB74040F080E01A
:104C200090E0A0EDB7E089839A83AB83BC8348A171
:104C3000442329F01A8E1B8E1C8E1D8E08C08FE314
:104C400090E0A0E0B0E08A8F9B8FAC8FBD8F898011
:104C50009A80AB80BC802A8D3B8D4C8D5D8D821AF5
:104C6000930AA40AB50A89829A82AB82BC8280E048
:104C700092E0A0E0B0E020E030E0730100E010E05E
:104C800009C0880F991FAA1FBB1F2F5F3F4F2730F6
:104C9000310531F08E159F05A007B10791F705C0CA
:104CA0008E159F05A007B10719F46114710411F561
:104CB000E8EAFCE220E030E040E050E081919191B0
:104CC000A191B191B901142F052F2F5F3F4F4F4F85
:104CD0005F4F88169906AA06BB0680F3CB016D8349
:104CE0009E831F830887FB01EE0FFF1FEE56F34DD7
:104CF0006080718030E0631632E0730618F4612C36
:104D0000F2E07F2E1301232C33242694C101A0E06E
:104D1000B0E08D879E87AF87B88BC501B4012D8524
:104D20003E854F8558890E94DA4EC901DA01853FD8
:104D3000EFE09E07E0E0AE07E0E0BE0708F428C41D
:104D4000F8A12F2F30E0853F4FEF940740E0A407F4
:104D500040E0B40750F57C018D01EE0CFF1C001FF4
:104D6000111F83E092E0A0E0B0E0E80EF91E0A1FF8
:104D70001B1F69E016950795F794E7946A95D1F79C
:104D80002F5F3F4FC901AA2797FDA095BA2F8E8BA1
:104D90009F8BA88FB98F20E230E040E050E02A8B53
:104DA0003B8B4C8B5D8B32E02AC07C018D0152E045
:104DB000EE0CFF1C001F111F5A95D1F787E092E0FF
:104DC000A0E0B0E0E80EF91E0A1F1B1F49E016958F
:104DD0000795F794E7944A95D1F781E290E0821B1A
:104DE000930B9C01442737FD4095542F2E8B3F8B0E
:104DF000488F598F1A8A1B8A1C8A1D8A33E03F8F7D
:104E0000898963E0AE014B5F5F4F0E94BB07882337
:104E100009F0A5C38E899F89A88DB98D2A8D3B8DF8
:104E20004C8D5D8D820F931FA41FB51F89879A87B4
:104E3000AB87BC872A893B894C895D892E0D3F1D34
:104E4000401F511F280F391F4A1F5B1F8D819E81F4
:104E5000AF81B8854C015D01089481089108A108D3
:104E6000B108820E931EA41EB51EB095A095909514
:104E700081959F4FAF4FBF4F88229922AA22BB2214
:104E800027013801421A530A640A750A480C591C52
:104E90006A1C7B1CE980FA800B811C81C801B70168
:104EA0002E893F89488D598D621B730B840B950B9E
:104EB00064197509860997092A893B894C895D8996
:104EC000621B730B840B950B2D853E854F8558898E
:104ED0000E94DA4E29A33AA34BA35CA33F8D323044
:104EE00051F489A19AA1ABA1BCA1855F9F40A040CC
:104EF000B04070F434C3FF8DF33051F429A13AA1CE
:104F00004BA15CA1255F3F4F4040504008F427C3B0
:104F10008D829E82AF82B88698A1992311F010EFFE
:104F20009CC04A8D5B8D6C8D7D8D4E0D5F1D601F0D
:104F3000711F3EE2E32EF12CEC0CFD1CF70120E08A
:104F400032E001C0119221503040AFEF2F3F3A07BD
:104F5000C9F7860104511E4F80E8F801808381E083
:104F60008183828313824030F4E05F07FBEF6F0799
:104F7000F0E07F07B0F4CB01BA0121EC3EE340E062
:104F800050E00E94DA4EC901DA01F801278322E0DD
:104F9000B695A795979587952A95D1F78F638683C0
:104FA00007C08FEFD80116968C93169717968C939F
:104FB0008EEFF8018583FF8DF33081F089819A812E
:104FC000AB81BC8180509040A140B04010F086E0A1
:104FD00001C084E0D80114968C9303C08CE0F801E2
:104FE00084838FE3D80118968C93189719961C9296
:104FF00019971A961C921A971B961C921B978981D7
:105000001C968C931C978A811D968C9389819A811A
:10501000AB81BC81CD01AA27BB27F8018687898196
:105020009A81AB81BC818B2F9927AA27BB278787C1
:10503000005C1F4F85E5D8018D93FD018AEA8083CE
:105040008989B70120E030E040E050E001E00E94B3
:105050004307882309F085C218EF5EE2E52EF12CA4
:10506000EC0CFD1CF70180E092E001C01192019769
:10507000BFEF8F3F9B07D1F78BEEF60186A78EEF30
:1050800087A780E980AB11AA11AE82E082AF2E8E95
:1050900023AE2E8924AF15AE81E086AF8A899B8925
:1050A000AC89BD8944E0880F991FAA1FBB1F4A9590
:1050B000D1F787AF40E450E0C40ED51E892F992761
:1050C000D6018C93E0ECFFEFCE0EDF1E89819A8132
:1050D000AB81BC818030F0E09F07F1E0AF07F0E0EA
:1050E000BF0760F421E430E0C20ED31EF6018193C5
:1050F0006F018A8180832EEB3FEF1FC04EE450E0AA
:10510000C40ED51EF60181938A81DF018D936D0156
:1051100089819A81AB81BC81CD01AA27BB27F60189
:1051200081936F0189819A81AB81BC818B2F9927F3
:10513000AA27BB2780832FEA3FEFC20ED31E43E48A
:1051400050E0C40ED51ED6011C93E3E0F0E0CE0E75
:10515000DF1E8FE3D6018D93FD0111928FEFDF01EA
:105160008D93FD011192DF01EA8DED931D92FD01FA
:1051700011926F01108223EB3FEFC20ED31E1D82EE
:105180001E821F821886B6016B5A7F4F852D992784
:10519000D601AE5ABF4F96012C5A3F4F4F8D433028
:1051A00041F1FB01108246E550E0C40ED51EF60128
:1051B000119211926F0110824CEE5FEFC40ED51E5A
:1051C000F60141926F0180834BEB5FEFC40ED51E59
:1051D00080E88C9389E2D9018C93D7019B96EBE010
:1051E000F0E202C081918D9320E2EE31F207D1F717
:1051F00051C041E750E0C40ED51EF6011192119244
:1052000011926F0110824C924FED5FEFC40ED51ECC
:10521000D6018C93C301AA27BB27F9018083872D70
:105220009927AA27BB27FB01808327E030E0C20E25
:10523000D31E82E0D6018D93FD011192DF011D92F4
:10524000FD01119281E0DF018D93FD01119286E055
:10525000DF018D936D011C92EDE0F0E0CE0EDF1EBC
:1052600080E8D6018C93E2E0F0E0CE0EDF1E89E20A
:10527000D6018C93E0E9FFEFCE0EDF1ED701A95BCC
:10528000BF4FEFE1F0E202C081918D9320E2E23363
:10529000F207D1F74CE252E0C40ED51E85E5D601E7
:1052A0008D936D018AEA8C93E3EDFDEFCE0EDF1E48
:1052B0008989B7012A8D3B8D4C8D5D8D01E00E945F
:1052C0004307882309F04DC1FF8DF33061F42A8D27
:1052D0003B8D4C8D5D8D2A5F3F4F4F4F5F4F8989CE
:1052E000B7010E944307F70180E092E001C01192EC
:1052F00001972FEF8F3F9207D1F73F8D333031F178
:10530000313029F020E03FEF4FEF5FEF04C020E0A5
:105310003FEF4FEF50E0812F90E0A0E0B0E0822B14
:10532000932BA42BB52B8D839E83AF83B887F60177
:1053300086A7292F332727A79D014427552720AB70
:105340008B2F9927AA27BB2781AB27C088EFD601CF
:105350009E968C939E978FEF9F968C939F97D09657
:105360008C93D097D1968C93D197D2968C93D297D9
:10537000D3968C93D397D4968C93D497D5968C93BD
:10538000D597D6968C93D697D7968C93D797D89651
:105390008C93D8978FE0D9968C938989B70129850A
:1053A0003A854B855C8501E00E944307882309F01C
:1053B000D8C0F70180E092E001C011920197BFEFE1
:1053C0008F3F9B07D1F789849A84AB84BC8408946F
:1053D000811C911CA11CB11C81E090E0A0E0B0E018
:1053E00016C08989B701A501940101E00E94430715
:1053F000882309F0B6C00894811C911CA11CB11C23
:105400008D819E81AF81B8850196A11DB11D8D83CF
:105410009E83AF83B8878D819E81AF81B8858415C7
:105420009505A605B705E8F2EF8DE33011F0FA898E
:10543000FE8F240135010894411C511C611C711C14
:105440008989B701A501940101E00E9443078823DF
:1054500009F087C02E8D21502E8F222319F0530181
:105460004201E7CF3F8D333009F070C04CE252E08B
:10547000C40ED51E85E5D6018D936D018AEA8C9305
:10548000E3EDFDEFCE0EDF1E82E5D6019E968C93F6
:105490009E979F968C939F9721E6D0962C93D097BA
:1054A00091E4D1969C93E2E1F2E0CE0EDF1E82E71A
:1054B000D6018D93FD018193DF019D93FD01219321
:1054C00089A18150DF018D9389A19AA10197FD01E6
:1054D000919389A19AA1ABA1BCA10197A109B1099E
:1054E0009D014427552721938B2F9927AA27BB2756
:1054F00081938FEFDF018D93FD018193DF018D9308
:10550000FD0180832A8D3B8D4C8D5D8D2F5F3F4F3C
:105510004F4F5F4F2A8F3B8F4C8F5D8F8989B7012B
:1055200001E00E9443078A8D9B8DAC8DBD8D069650
:10553000A11DB11D8A8F9B8FAC8FBD8F8989B7014B
:105540002A8D3B8D4C8D5D8D0E944307898960E0DB
:1055500040E050E00E94BB07882321F002C08EE0AB
:1055600001C081E0A496CDBFDEBFCF91DF911F9136
:105570000F91FF90EF90DF90CF90BF90AF909F90F2
:105580008F907F906F905F904F903F902F900895F5
:105590007C018D01EE0CFF1C001F111FE80EF91E8F
:1055A0000A1F1B1F0894E11CF11C011D111D1695FB
:1055B0000795F794E79422E032E040E050E0E20EF5
:1055C000F31E041F151FB9E016950795F794E7948D
:1055D000BA95D1F738A1832F90E001969C0144271A
:1055E00037FD4095542F2E8B3F8B488F598F80E28B
:1055F00090E0A0E0B0E08A8B9B8BAC8BBD8B91E000
:105600009F8FFECB6F927F928F929F92AF92BF92AD
:10561000CF92DF92EF92FF920F931F93DF93CF937E
:105620000F920F92CDB7DEB75C016B014A018C017E
:10563000EE24FF240894C108D1083E010894611C9F
:10564000711C13C0C401B80141E050E093010E94F5
:105650005B1889819A81019759F40894E11CF11C27
:10566000F80181918F018A3019F0EC14FD0454F394
:10567000F8011082EF2811F4AA24BB24C5010F9071
:105680000F90CF91DF911F910F91FF90EF90DF90DE
:10569000CF90BF90AF909F908F907F906F90089524
:1056A0000F931F93DF93CF9300D0CDB7DEB78C015C
:1056B0006115710591F08983CB01BE016F5F7F4F4A
:1056C00041E050E09E012E5F3F4F0E94511A8A81B7
:1056D0009B81892B11F40FEF1FEFC8012396CDBFDB
:1056E000DEBFCF91DF911F910F910895EF92FF924E
:1056F0000F931F93CF93DF938C017B01C0E0D0E029
:105700000DC090E0B7010E94502B8F5F9F4F19F49E
:10571000CFEFDFEF07C00F5F1F4F2196F8018081A9
:10572000882379F7CE01DF91CF911F910F91FF90E0
:10573000EF90089586EF97E40E940D1D08958091E3
:10574000680690E080FF91E0892F0895AF92BF92A4
:10575000CF92DF92EF92FF920F931F93DF93CF933D
:105760000F920F92CDB7DEB75C016B0186EF97E425
:10577000B501A6019E012F5F3F4F0E94511A60E0C4
:1057800070E03BC0E090774CF090784C0091794C01
:1057900010917A4C2091774C3091784C4091794C13
:1057A00050917A4C307040705070F501E60FF71F41
:1057B000808190E0A0E0B0E0282739274A275B27C6
:1057C000220F331F220F331F2059394DEF2CF02E9B
:1057D000012F1127F90180819181A281B381E826EF
:1057E000F9260A271B27E092774CF092784C009319
:1057F000794C10937A4C6F5F7F4F6C157D0510F2DA
:105800000F900F90CF91DF911F910F91FF90EF902C
:10581000DF90CF90BF90AF9008956093BF3D272F4A
:10582000382F492F55272093C03D9C0144275527E9
:105830002093C13D692F7727882799276093C23D20
:105840008FEB9DE364E070E00E94A62B08958093A7
:10585000CA519093CB518AEC91E562E070E00E94CE
:10586000A62B08958093224782E297E461E070E0DE
:105870000E94A62B08958FEF9FEFAFEFBFEF8093AD
:10588000774C9093784CA093794CB0937A4C0895D0
:105890006091774C7091784C8091794C90917A4CD2
:1058A00060957095809590950E940D2C0895E0E08C
:1058B000FAE080E492E086A397A38081807F8660EF
:1058C000808386818C7F8260868308951F9381E028
:1058D000E0E6F6E082830E94572C80E00E94F60505
:1058E000182F80E065E97DE20E94CA1681E063EC32
:1058F0007FE20E94CA16812F1F9108951F920F9276
:105900000FB60F920BB60F9211242F933F934F9324
:105910005F936F937F938F939F93AF93BF93EF9317
:10592000FF930E948E09FF91EF91BF91AF919F91DC
:105930008F917F916F915F914F913F912F910F9038
:105940000BBE0F900FBE0F901F901895882329F063
:1059500081E0E0EAF6E08583089581E0E0EAF6E0A0
:105960008683089581E0E0EAF6E08783089590E871
:10597000E0EAF6E09683E0ECF9E083838091C209E7
:1059800087FFFCCF089590E8E0EAF6E09583E0EC2D
:10599000F9E083838091C20987FFFCCF0895806B73
:1059A00090E8E0EAF6E09683E0ECF9E0838380910A
:1059B000C20987FFFCCF962F9F7080E8E0EAF6E0EF
:1059C0008683E0ECF9E093838091C20987FFFCCFE6
:1059D00062956F70606180E8E0EAF6E08683E0EC53
:1059E000F9E063838091C20987FFFCCF0895DF92BD
:1059F000EF92FF920F931F93CF93DF93082F10E046
:105A000040EAE42E46E0F42E30E8D32EC0ECD9E094
:105A1000802F612F0E94CF2CF701D5821B828091AD
:105A2000C20987FFFCCF1F5F163691F7DF91CF9138
:105A30001F910F91FF90EF90DF900895DF92EF920A
:105A4000FF920F931F93CF93DF9300E060EAE62E5F
:105A500066E0F62E50E8D52EC0ECD9E011C0802FBC
:105A6000612F0E94CF2CF701D5821B828091C20941
:105A700087FFFCCF1F5F163691F70F5F083011F0DC
:105A800010E0EDCFDF91CF911F910F91FF90EF903C
:105A9000DF900895CF93DF93A0E6B6E088E35496B5
:105AA0008C935497E0EAF6E0878B30E115963C93AF
:105AB000159720E42183258380E090E9EC0121976C
:105AC000F1F72683EC012197F1F725830197F1F790
:105AD0008DED8093C00980EB11968C93119780E82F
